{
  "contractName": "Supplier",
  "abi": [
    {
      "anonymous": false,
      "inputs": [
        {
          "indexed": false,
          "internalType": "uint256",
          "name": "idItem",
          "type": "uint256"
        }
      ],
      "name": "ItemAdd",
      "type": "event"
    },
    {
      "anonymous": false,
      "inputs": [
        {
          "indexed": false,
          "internalType": "uint256",
          "name": "cid",
          "type": "uint256"
        },
        {
          "indexed": false,
          "internalType": "uint256",
          "name": "oid",
          "type": "uint256"
        },
        {
          "indexed": false,
          "internalType": "bool",
          "name": "status",
          "type": "bool"
        }
      ],
      "name": "ProcessOrder",
      "type": "event"
    },
    {
      "constant": false,
      "inputs": [
        {
          "internalType": "bytes32",
          "name": "itemName",
          "type": "bytes32"
        },
        {
          "internalType": "uint256",
          "name": "price",
          "type": "uint256"
        }
      ],
      "name": "addItem",
      "outputs": [],
      "payable": false,
      "stateMutability": "nonpayable",
      "type": "function"
    },
    {
      "constant": false,
      "inputs": [
        {
          "internalType": "uint256",
          "name": "oid",
          "type": "uint256"
        },
        {
          "internalType": "uint256",
          "name": "cid",
          "type": "uint256"
        }
      ],
      "name": "processOrder",
      "outputs": [],
      "payable": false,
      "stateMutability": "nonpayable",
      "type": "function"
    },
    {
      "constant": true,
      "inputs": [
        {
          "internalType": "uint256",
          "name": "idItem",
          "type": "uint256"
        }
      ],
      "name": "getItem",
      "outputs": [
        {
          "internalType": "bytes32",
          "name": "",
          "type": "bytes32"
        },
        {
          "internalType": "uint256",
          "name": "",
          "type": "uint256"
        }
      ],
      "payable": false,
      "stateMutability": "view",
      "type": "function"
    },
    {
      "constant": true,
      "inputs": [
        {
          "internalType": "uint256",
          "name": "oid",
          "type": "uint256"
        }
      ],
      "name": "getStatus",
      "outputs": [
        {
          "internalType": "bool",
          "name": "",
          "type": "bool"
        }
      ],
      "payable": false,
      "stateMutability": "view",
      "type": "function"
    },
    {
      "constant": true,
      "inputs": [],
      "name": "getNumberOfAvailableItems",
      "outputs": [
        {
          "internalType": "uint256",
          "name": "",
          "type": "uint256"
        }
      ],
      "payable": false,
      "stateMutability": "view",
      "type": "function"
    },
    {
      "constant": true,
      "inputs": [],
      "name": "geNumberOfOrdersProcessed",
      "outputs": [
        {
          "internalType": "uint256",
          "name": "",
          "type": "uint256"
        }
      ],
      "payable": false,
      "stateMutability": "view",
      "type": "function"
    }
  ],
  "bytecode": "0x608060405234801561001057600080fd5b506103ba806100206000396000f3fe608060405234801561001057600080fd5b50600436106100625760003560e01c80633129e773146100675780635c622a0e146100b057806360ac0fe2146100f6578063804544c414610114578063c490aab11461014c578063e60451f41461016a575b600080fd5b6100936004803603602081101561007d57600080fd5b81019080803590602001909291905050506101a2565b604051808381526020018281526020019250505060405180910390f35b6100dc600480360360208110156100c657600080fd5b81019080803590602001909291905050506101dc565b604051808215151515815260200191505060405180910390f35b6100fe610209565b6040518082815260200191505060405180910390f35b61014a6004803603604081101561012a57600080fd5b810190808035906020019092919080359060200190929190505050610213565b005b6101546102dd565b6040518082815260200191505060405180910390f35b6101a06004803603604081101561018057600080fd5b8101908080359060200190929190803590602001909291905050506102e6565b005b6000806002600084815260200190815260200160002060010154600260008581526020019081526020016000206002015491509150915091565b60006003600083815260200190815260200160002060020160009054906101000a900460ff169050919050565b6000600154905090565b60405180606001604052808281526020018381526020016001151581525060036000848152602001908152602001600020600082015181600001556020820151816001015560408201518160020160006101000a81548160ff0219169083151502179055509050506001600081548092919060010191905055507f3a12966f0a539f47aabe45c01f4118a5a9e60d9a3b87862b8155ced558a2058c818360016040518084815260200183815260200182151515158152602001935050505060405180910390a15050565b60008054905090565b6000806000815480929190600101919050559050604051806060016040528082815260200184815260200183815250600260008381526020019081526020016000206000820151816000015560208201518160010155604082015181600201559050507fb24a8b1e548ac011b99726423366744a00b4f43a76c547367dc6a0a77550a2f7816040518082815260200191505060405180910390a150505056fea265627a7a723158207f9967395f8f9c5586c7aed46b481c432d41e83d6601e04e1e3a638037c909b364736f6c63430005100032",
  "source": "\npragma solidity ^0.5.0;\n\ncontract Supplier {\n\n  event ItemAdd(uint idItem);\n  event ProcessOrder(uint cid, uint oid, bool status);\n\n  struct Item {\n    uint idItem;\n    bytes32 itemName;\n    uint price;\n  }\n\n  struct Orderlog {\n    uint cid;\n    uint oid; \n    bool status;\n  }\n\n  uint ItemsForSale;\n  uint OrdersProcessed;\n\n  mapping (uint => Item) items;\n  mapping (uint => Orderlog) orderLogs;\n\n\n  function addItem(bytes32 itemName, uint price) public {\n    uint idItem = ItemsForSale++;\n    items[idItem] = Item(idItem, itemName, price);\n    emit ItemAdd(idItem);\n  }\n\n  function processOrder(uint oid, uint cid) public {\n    orderLogs[oid] = Orderlog(cid, oid, true);\n    OrdersProcessed ++;\n    emit ProcessOrder(cid, oid, true);\n  }\n\n \n  function getItem(uint idItem) view public returns (bytes32, uint){\n    return (items[idItem].itemName, items[idItem].price);\n  }\n\n  function getStatus(uint oid) view public returns (bool) {\n    return (orderLogs[oid].status);\n  }\n\n  function getNumberOfAvailableItems() view public returns (uint) {\n    return ItemsForSale;\n  }\n\n  function geNumberOfOrdersProcessed() view public returns (uint){\n    return OrdersProcessed;\n  }\n\n}\n",
  "sourcePath": "/Users/z085685/Desktop/Bharat Solidty project /Decentralized_eCom/bharat/contracts/Supplier.sol",
  "compiler": {
    "name": "solc",
    "version": "0.5.16+commit.9c3226ce.Emscripten.clang"
  },
  "schemaVersion": "3.1.0",
  "updatedAt": "2020-04-27T10:52:31.124Z",
  "networkType": "ethereum",
  "devdoc": {
    "methods": {}
  },
  "userdoc": {
    "methods": {}
  }
}