{
  "contractName": "Customer",
  "abi": [
    {
      "inputs": [],
      "payable": false,
      "stateMutability": "nonpayable",
      "type": "constructor"
    },
    {
      "anonymous": false,
      "inputs": [
        {
          "indexed": false,
          "internalType": "uint256",
          "name": "idOrder",
          "type": "uint256"
        }
      ],
      "name": "OrderRaisedOrUpdated",
      "type": "event"
    },
    {
      "constant": false,
      "inputs": [
        {
          "internalType": "bytes32",
          "name": "itemName",
          "type": "bytes32"
        },
        {
          "internalType": "uint256",
          "name": "quantity",
          "type": "uint256"
        }
      ],
      "name": "purchaseItem",
      "outputs": [],
      "payable": false,
      "stateMutability": "nonpayable",
      "type": "function"
    },
    {
      "constant": false,
      "inputs": [
        {
          "internalType": "uint256",
          "name": "oid",
          "type": "uint256"
        }
      ],
      "name": "recieveItem",
      "outputs": [],
      "payable": false,
      "stateMutability": "nonpayable",
      "type": "function"
    },
    {
      "constant": true,
      "inputs": [
        {
          "internalType": "uint256",
          "name": "oid",
          "type": "uint256"
        }
      ],
      "name": "getOrderDetails",
      "outputs": [
        {
          "internalType": "bytes32",
          "name": "",
          "type": "bytes32"
        },
        {
          "internalType": "uint256",
          "name": "",
          "type": "uint256"
        },
        {
          "internalType": "bool",
          "name": "",
          "type": "bool"
        }
      ],
      "payable": false,
      "stateMutability": "view",
      "type": "function"
    },
    {
      "constant": true,
      "inputs": [],
      "name": "getNumberOfItemsPurchased",
      "outputs": [
        {
          "internalType": "uint256",
          "name": "",
          "type": "uint256"
        }
      ],
      "payable": false,
      "stateMutability": "view",
      "type": "function"
    },
    {
      "constant": true,
      "inputs": [],
      "name": "getNumberOfItemsReceived",
      "outputs": [
        {
          "internalType": "uint256",
          "name": "",
          "type": "uint256"
        }
      ],
      "payable": false,
      "stateMutability": "view",
      "type": "function"
    }
  ],
  "bytecode": "0x608060405234801561001057600080fd5b506040518060400160405280600181526020017f426861726174204b756d61720000000000000000000000000000000000000000815250600260008081526020019081526020016000206000820151816000015560208201518160010155905050610352806100806000396000f3fe608060405234801561001057600080fd5b50600436106100575760003560e01c80630657de331461005c57806377c3d81b1461008a57806394193dd2146100a8578063d103b02c146100e0578063ec7dd7bb146100fe575b600080fd5b6100886004803603602081101561007257600080fd5b8101908080359060200190929190505050610152565b005b6100926101cd565b6040518082815260200191505060405180910390f35b6100de600480360360408110156100be57600080fd5b8101908080359060200190929190803590602001909291905050506101d7565b005b6100e86102b0565b6040518082815260200191505060405180910390f35b61012a6004803603602081101561011457600080fd5b81019080803590602001909291905050506102b9565b6040518084815260200183815260200182151515158152602001935050505060405180910390f35b60016000815480929190600101919050555060016003600083815260200190815260200160002060040160006101000a81548160ff0219169083151502179055507ffd4b9f33f750059f7f0fea80cc0091c7788f7b097feddbd26b1e87482cad21f3816040518082815260200191505060405180910390a150565b6000600154905090565b60008060008154809291906001019190505590506040518060a001604052808281526020016000815260200184815260200183815260200160001515815250600360008381526020019081526020016000206000820151816000015560208201518160010155604082015181600201556060820151816003015560808201518160040160006101000a81548160ff0219169083151502179055509050507ffd4b9f33f750059f7f0fea80cc0091c7788f7b097feddbd26b1e87482cad21f3816040518082815260200191505060405180910390a1505050565b60008054905090565b6000806000600360008581526020019081526020016000206002015460036000868152602001908152602001600020600301546003600087815260200190815260200160002060040160009054906101000a900460ff16925092509250919390925056fea265627a7a723158200a6bccb6f11e2428b7052090a117379386d27a9d1d48b49495dcd00dd029cd3464736f6c63430005100032",
  "source": "pragma solidity ^0.5.0;\n\n\ncontract Customer {\nevent OrderRaisedOrUpdated(uint idOrder);\n\n  struct Customer {\n    uint cid;\n    bytes32 cName;\n  }\n\n  struct Orderlog {\n    uint Oid;\n    uint cid;\n    bytes32 itemName;\n    uint quantity;\n    bool status;\n  }\n\n  uint PItems;\n  uint RItems;\n\n  mapping (uint => Customer) customers;\n  mapping (uint => Orderlog) orderLogs;\n\n  constructor() public {\n  customers[0] = Customer(1, \"Bharat Kumar\");\n  }\n\n  \n  function purchaseItem(bytes32 itemName, uint quantity) public {\n    uint oid = PItems++;\n    orderLogs[oid] = Orderlog(oid, 0, itemName, quantity, false);\n    emit OrderRaisedOrUpdated(oid);\n  }\n\n  function recieveItem(uint oid) public {\n      RItems++;\n      orderLogs[oid].status = true;\n      emit OrderRaisedOrUpdated(oid);\n  }\n\n \n  function getOrderDetails(uint oid) view public returns (bytes32, uint, bool){\n   return (orderLogs[oid].itemName, orderLogs[oid].quantity, orderLogs[oid].status);\n  }\n\n  function getNumberOfItemsPurchased() view public returns (uint) {\n    return PItems;\n  }\n\n  function getNumberOfItemsReceived() view public returns (uint) {\n    return RItems;\n  }\n\n}\n",
  "sourcePath": "/Users/z085685/Desktop/Bharat Solidty project /Decentralized_eCom/bharat/contracts/Customer.sol",
  "compiler": {
    "name": "solc",
    "version": "0.5.16+commit.9c3226ce.Emscripten.clang"
  },
  "schemaVersion": "3.1.0",
  "updatedAt": "2020-04-27T10:52:31.126Z",
  "networkType": "ethereum",
  "devdoc": {
    "methods": {}
  },
  "userdoc": {
    "methods": {}
  }
}